:100000000C9456000C9473000C9473000C947300C1
:100010000C9473000C9473000C9473000C94730094
:100020000C9473000C945D020C9473000C94730098
:100030000C9473000C9473000C9473000C94730074
:100040000C9473000C94D1020C94F9020C9473007C
:100050000C94D8020C9473000C9473000C947300ED
:100060000C9473000C9473000C9473000C94730044
:100070000C9473000C9473000C9473000C94730034
:100080000C9473000C9473000C9473000C94730024
:100090000C9473000C9473000C9473000C94730014
:1000A0000C9473000C9473000C94730011241FBE05
:1000B000CFEFDAE0DEBFCDBF11E0A0E0B1E0EAE6CD
:1000C000F0E102C005900D92A432B107D9F721E00A
:1000D000A4E2B1E001C01D92AE34B207E1F70E9484
:1000E0003A030C9433080C940000CF93DF93E09113
:1000F0002401EE3008F0C8C0F0E0EF57FF4F0C9439
:100100009D038F00A400E600F6003C014401440179
:1001100044014401440147016F019601B30183E3A7
:1001200096EC909343018093420185E391E0909394
:100130002B0180932A011092000181E00E94DB01D3
:1001400081E080932401A0C080910001883009F0F3
:100150009BC080913B01823081F581E090E09093DB
:100160003A018093390187E091E09F938F930E9439
:10017000EE03809136018F93809135018F93CAE011
:10018000D1E0DF93CF930E94EE03809138018F93EB
:10019000809137018F93DF93CF930E94EE038AE023
:1001A00090E00E9404048DB79EB70A960FB6F894AB
:1001B0009EBF0FBE8DBF82E0C4CF10923A01109255
:1001C00039018EE091E00E940B04F5CF8AEA94EDAC
:1001D00090934301809342018CE291E090932B0134
:1001E00080932A011092000183E0ABCF809100013F
:1001F000883009F049C080913B018230A1F581E04F
:1002000090E0909331018093300186E191E09F93DB
:100210008F930E94EE0380912C0190912D018351C8
:1002200091409F938F93CAE0D1E0DF93CF930E94D8
:10023000EE0380912E0190912F01835191409F9365
:100240008F93DF93CF930E94EE038AE090E00E94A9
:1002500004048DB79EB70A960FB6F8949EBF0FBEE2
:100260008DBF8AE06ECF109231011092300189E18A
:1002700091E00E940B04F5CF81E00E94E801883EE6
:10028000934010F010922401DF91CF91089581E204
:1002900091E09F938F930E94EE032091350130915E
:1002A00036013093340120933301809137019091CE
:1002B00038010F900F908217930720F49093340128
:1002C000809333018091330190913401C2969093D1
:1002D000340180933301109232018BE032CF809150
:1002E000320190E0FC01EE0FFF1FEB5CFE4F20910E
:1002F00033013091340124374EE0340710F424E701
:100300003EE0408151812417350758F58F5F9945AC
:10031000909343018093420186E291E090932B01F8
:1003200080932A01109200018CE00BCF8091000194
:10033000883009F0A9CF20913201822F90E03091CE
:100340003B0101963817190661F41F922F938AE03A
:1003500091E09F938F930E94EE030F900F900F9068
:100360000F908DE0EECE809132018F5F809332014D
:10037000823008F4B2CF8AE090E00E94040481E069
:100380000E94DB0184E0DDCE85B5846085BD0895E3
:1003900086B5982F977096BD8695869586952091FF
:1003A000400130914101820F932F911D90934101A3
:1003B000809340010895E82FF0E0EE0FFF1FE45C0A
:1003C000FE4F809140019091410191838083089577
:1003D000E82FF0E0EE0FFF1FE45CFE4F809140013C
:1003E0009091410120813181821B930B0895312C22
:1003F000412C809143018068582E60904201269ADA
:100400002E9882E080938000E1E8F0E088E180832C
:100410008AEA91E090938B0080938A0081E493E0D4
:1004200090938700809386008FEF86BB85E0809352
:100430006F008DE293E0909385008093840080812B
:10044000816080830895412C312C089525982E9841
:100450001092800088E180938100109285001092B4
:10046000840084E996E090938900809388008FEF60
:100470009FEF909387008093860086BB8BBB82E0C2
:1004800080936F0081E08093680080E280936B002E
:100490000C942302832D08951092810010926F0016
:1004A00010926800852D90E0982F8827860D911D69
:1004B000909343018093420108951F920F920FB6CB
:1004C0000F9211242F933F934F935F936F937F93DA
:1004D0008F939F93AF93BF93EF93FF93809184008B
:1004E00090918500109285001092840041101CC0EC
:1004F0001D9909C0809181008160809381008BE605
:10050000809325014394FF91EF91BF91AF919F910B
:100510008F917F916F915F914F913F912F910F90AC
:100520000FBE0F901F9018959C0126513140253128
:100530003140C8F4809125018C3621F48BE68093FC
:100540002501E1CF862D880F682E9CE6909325012A
:100550001D9B02C08160682E81E0840D482E893089
:1005600079F4562CD0CF8C5292408A329240A0F42B
:10057000809125018C3659F4862D880F682EE8CF9E
:10058000813109F60E944C0233243394BCCF0E947F
:100590004C0292E0392EB7CF0E944C0283E0382EF5
:1005A000B2CF8F930E944C0284E0382E8F91189521
:1005B0001F920F920FB60F9211248F93842D8031CA
:1005C00069F42E981092810010926F0033243394B6
:1005D0008F910F900FBE0F901F901895883009F4DF
:1005E000562C57FE04C02E9A550C4394F1CF2E98EA
:1005F000FBCF1E9A18958AB1806C8AB908955E9ACD
:100600005F9808955F9A5E9808955F9A5E9A08953C
:100610005F985E9808958BB180588BB908958BB11F
:1006200090E489278BB90895869A08958E9A089543
:100630008E980895859A08958D9A08958D980895B5
:100640009091C80095FFFCCF8093CE0090E080E0B1
:1006500008958CE090E09093CD008093CC0088E0EA
:100660008093C90050E040E070E060E080E293E0F9
:100670000C94A303239A0E94C4010E94FB020E94CF
:1006800029037894C8E0D5E016E0FF24F3940E9493
:10069000C8010E94750080910001811105C00E946F
:1006A000F701F0920001F3CF813049F40E944A0231
:1006B000813069F710923B01D0930001E8CF85307B
:1006C00041F480E00E94DB010E94260210930001A9
:1006D000DECF8630E1F60E944A0281110CC00E94F2
:1006E000080380E00E94E801499788F20E944C02CA
:1006F000C0930001CCCF8130D9F480913B01282FE9
:1007000030E0220F331FE0912A01F0912B01E20F1C
:10071000F31F20914201309143013F7731832083C1
:100720008F5F80933B010E940203D0930001D9CFD9
:100730000E94FF02C0930001D4CFEE0FFF1F05906F
:10074000F491E02D09940F931F93CF93DF930097BB
:1007500059F46115710541F4F0E0E0E0CF01DF915B
:10076000CF911F910F9108958B01EC016EE070E025
:1007700081E090E00E941006FC01892B69F380E87B
:1007800083830115110571F01387028781E8838344
:100790008091440190914501892B21F4F09345010A
:1007A000E09344012097D1F2D187C0878381826092
:1007B00083838091460190914701892B79F6F093CC
:1007C0004701E09346018091480190914901892BAE
:1007D00029F6F0934901E0934801C0CFB0E0A0E0D2
:1007E000E4EFF3E00C940C08AE014B5F5F4FFA01AD
:1007F00061917191AF0180914601909147010E94F2
:100800003604E2E00C94280860914601709147019B
:100810000E946E0708950F931F93CF93DF93E0918B
:100820004601F09147012381EC0110E000E021FD39
:1008300008C00FEF1FEF14C00995892B11F00FEFBF
:100840001FEF89916091460170914701DB01189675
:10085000ED91FC918111F0CF8AE00995892B49F740
:10086000C801DF91CF911F910F910895ABE0B0E0E7
:10087000ECE3F4E00C94FC077C013B018A01FC01F1
:1008800017821682838181FFC8C1CE0101965C0167
:10089000F7019381F30193FD859193FF81913F01CE
:1008A000882309F453C1853239F493FD859193FF70
:1008B00081913F01853229F4B70190E00E946E07D3
:1008C000E7CF912C212C312CFFE1F31538F08B323E
:1008D00011F190F4803209F1833229F137FC3CC0E8
:1008E00020ED280F2A3050F536FE20C08AE0989E71
:1008F000200D1124922E06C08D3291F0803371F7B5
:10090000689430F8F30193FD859193FF81913F0145
:100910008111DACF21C0689431F8689432F8F2CFAF
:10092000689433F8EFCF689434F8ECCFEAE02E9E69
:10093000200D1124222E689435F8E4CF8E3229F44C
:1009400036FC04C1689436F8DDCF8C3619F468940F
:1009500037F8D8CF8836B1F2982F9F7D95549330D1
:10096000E0F08336A1F18337C1F1833509F063C02C
:100970002801F2E04F0E511CF801C080D180692D92
:1009800070E036FC02C06FEF7FEFC6010E94510796
:100990004C01689437F882010AC00C5F1F4FFFE3D7
:1009A000F98388248394912C6501E89437F833FE09
:1009B0002DC0522C8114910471F5552009F468CF93
:1009C000B70180E290E00E946E075A94F6CFF801DA
:1009D000808189830E5F1F4FE4CF2801F2E04F0E24
:1009E000511CF801C080D180692D70E036FC02C036
:1009F0006FEF7FEFC6010E9463074C018201D5CFE4
:100A0000B70180E290E00E946E072A94281419042E
:100A100009F0B0F7CECFF60137FC859137FE819112
:100A20006F01B70190E00E946E0751105A94F1E0F7
:100A30008F1A9108BFCF843619F0893609F077C034
:100A4000F80137FE6BC060817181828193810C5FF8
:100A50001F4FF32DFF763F2E97FF09C0909580958D
:100A6000709561957F4F8F4F9F4F689437F82AE0BC
:100A700030E0A5010E949E07C82ECA188C2C432C7A
:100A800036FE0CC0E89440F8C91440F434FE05C0AA
:100A900032FC03C0F32DFE7E4F2E892C44FE95C000
:100AA000FE01EC0DF11D8081803309F087C0242DFB
:100AB000297E422E842D8870582E43FC95C040FE1E
:100AC0008FC09C2C821418F42C0C922C981844FE85
:100AD00091C0B70180E390E00E946E0742FE09C01A
:100AE00088E790E041FE02C088E590E0B7010E94EF
:100AF0006E07C91408F48AC0CA94D12C9FEFC91A92
:100B0000D90ACA0CDB1CF60182916F01B70190E093
:100B10000E946E07AC14BD04B1F74FCF60817181A4
:100B2000072E000C880B990B0E5F1F4F92CFD32C12
:100B3000E894D4F82AE030E0853739F1232D297F75
:100B4000D22E8F3601F148F48835A9F0F70186815D
:100B500097812B96E2E10C941808803749F088378A
:100B6000A9F7D4FE02C06894D2F820E130E00DC0AD
:100B70006894D4F8F6CF34FE03C0822F8660D82E56
:100B800020E132E002C028E030E0F801D7FE0FC0DB
:100B900060817181828193810C5F1F4FA5010E944A
:100BA0009E07C82ECA183D2CE89437F867CF60819D
:100BB000718190E080E00E5F1F4FF0CF42FC02C0D9
:100BC000839478CF8394839475CF842D867809F4A9
:100BD00071CFF6CFB70180E290E00E946E07839458
:100BE0008214C0F3512C73CF522C5818821408F47D
:100BF0006ECFF8CF842D867809F47BCF8BE241FE4F
:100C000080E247FC8DE2B70190E071CFB70180E34D
:100C100090E00E946E079A946CCF8FEF9FEF99CF70
:100C20000F931F93CF93DF93869F8001879F100DB3
:100C3000969F100D1124C8010E942C06EC0100970C
:100C400029F0A80170E060E00E945C07CE01DF910E
:100C5000CF911F910F9108950F931F93CF93DF931F
:100C60008230910510F482E090E0E0914C01F09127
:100C70004D0130E020E0B0E0A0E0309799F421157C
:100C8000310509F44AC0281B390B24303105D8F549
:100C90008A819B816115710589F1FB0193838283B0
:100CA000FE0111C04081518102811381481759070B
:100CB000E0F04817590799F4109761F012960C93D9
:100CC000129713961C933296CF01DF91CF911F910B
:100CD0000F91089500934C0110934D01F4CF21150D
:100CE000310551F04217530738F0A901DB019A0191
:100CF000BD01DF01F801C1CFEF01F9CF90934D01A4
:100D000080934C01CDCFFE01E20FF31F81939193AD
:100D10002250310939832883D7CF20914A0130915D
:100D20004B01232B41F420910301309104013093B6
:100D30004B0120934A0120910101309102012115BC
:100D4000310541F42DB73EB74091050150910601A0
:100D5000241B350BE0914A01F0914B01E217F30798
:100D6000A0F42E1B3F0B2817390778F0AC014E5F1B
:100D70005F4F2417350748F04E0F5F1F50934B010C
:100D800040934A01819391939FCFF0E0E0E09CCFA4
:100D9000CF93DF930097E9F0FC0132971382128220
:100DA000A0914C01B0914D01ED0130E020E0109791
:100DB000A1F420813181820F931F20914A0130914B
:100DC0004B012817390709F061C0F0934B01E093FC
:100DD0004A01DF91CF910895EA01CE17DF07E8F5C8
:100DE0004A815B819E0141155105B1F7E901FB8301
:100DF000EA8349915991C40FD51FEC17FD0761F49F
:100E0000808191810296840F951FE90199838883DF
:100E1000828193819B838A83F0E0E0E012968D913A
:100E20009C9113970097B9F52D913C911197CD01A5
:100E30000296820F931F20914A0130914B0128178F
:100E4000390739F6309751F510924D0110924C0147
:100E5000B0934B01A0934A01BCCFD383C28340819E
:100E60005181840F951FC817D90761F44E5F5F4FFA
:100E700088819981480F591F518340838A819B81C2
:100E8000938382832115310509F0B0CFF0934D0192
:100E9000E0934C019ECFFD01DC01C0CF1382128292
:100EA000D7CFFC010590615070400110D8F78095B4
:100EB00090958E0F9F1F0895DC0101C06D934150E6
:100EC0005040E0F70895FC0161507040019001101E
:100ED000D8F7809590958E0F9F1F08950F931F93BD
:100EE000CF93DF93182F092FEB018B8181FD09C070
:100EF0001FEF0FEF812F902FDF91CF911F910F9157
:100F0000089582FF14C02E813F818C819D81281716
:100F100039073CF4E881F981CF01019699838883F0
:100F200010838E819F8101969F838E83E3CFE88516
:100F3000F985812F0995892BA1F3DACFFA01AA2728
:100F4000283051F1203181F1E8946F936E7F6E5F0C
:100F50007F4F8F4F9F4FAF4FB1E03ED0B4E03CD0BA
:100F6000670F781F891F9A1FA11D680F791F8A1F9D
:100F7000911DA11D6A0F711D811D911DA11D20D004
:100F800009F468943F912AE0269F11243019305DBE
:100F90003193DEF6CF010895462F4770405D4193AF
:100FA000B3E00FD0C9F7F6CF462F4F70405D4A33FC
:100FB00018F0495D31FD4052419302D0A9F7EACFC4
:100FC000B4E0A6959795879577956795BA95C9F7F3
:100FD00000976105710508959B01AC010A2E0694E6
:100FE0005795479537952795BA95C9F7620F731F9F
:100FF000841F951FA01D08952F923F924F925F92DC
:101000006F927F928F929F92AF92BF92CF92DF9218
:10101000EF92FF920F931F93CF93DF93CDB7DEB77D
:10102000CA1BDB0B0FB6F894DEBF0FBECDBF099411
:101030002A88398848885F846E847D848C849B8468
:10104000AA84B984C884DF80EE80FD800C811B8176
:10105000AA81B981CE0FD11D0FB6F894DEBF0FBEA5
:0A106000CDBFED010895F894FFCF15
:10106A000800004E0120005520002564200055206C
:10107A004552524F520054200054204552524F526A
:04108A000042200000
:00000001FF
