:1000000026C1000040C100003EC100003CC100000C
:100010003AC1000038C1000036C1000034C1000000
:1000200032C1000030C100000C9413102CC100003C
:100030002AC1000028C1000026C1000024C1000020
:1000400022C100005AC700001EC100001CC10000F0
:100050001AC10000AAC1000016C1000014C10000AE
:1000600012C1000010C100000EC100000CC1000050
:100070000AC1000008C1000006C1000004C1000060
:1000800002C1000000C10000FEC00000FCC0000072
:10009000FAC00000F8C00000F6C00000F4C0000084
:1000A000F2C00000F0C00000EEC00000370A590A9C
:1000B000760ABA0ABC0ABE0A070BF9121613CB134A
:1000C0001613CB134E137013CB139D13AF131803DA
:1000D00041005600520049005300500020006D00BE
:1000E0006B004900490000000C03410054004D0022
:1000F00045004C0000000403090412011001FF0038
:100100000010EB03042100020102030109000A00B0
:100110000A000B000C000D000D000E000F00100077
:10012000100012001300130014001600160018002F
:1001300019001A001C001D001F00200022002300CF
:100140002500270029002B002E003000320034004B
:1001500037003A003D004000430046004A004E0090
:10016000520055005A005E00630068006D00730085
:1001700078007E0084008B0091009900A000A90007
:10018000B100B900C300CC00D600E100EC00F700DC
:10019000040111011E012D013B014B015B016C01AA
:1001A0007D019101A501BA01CF01E601FE01160210
:1001B00031024C026A028802A802CA02ED0211034F
:1001C000380360038B03B803E70318044B0481046E
:1001D000B904F50434057505B90501064E069D06FA
:1001E000EF064807A30704086508D0084009B609C8
:1001F0002B0AAB0A300BC30B510CEE0C8F0D400ECB
:10020000F60EAF0F681047111412F512ED13E21439
:10021000F015F9161B185C19911AE51B251D831E94
:100220000320AB21302332250F27F128F82A1A2D7D
:10023000492FA1311434A1364539173C1A3F3442B5
:100240006045DF48704C40004101424303001124E7
:100250001FBECFEFDAE0DEBFCDBF11E0A0E0B1E01E
:10026000EAE3F8E202C005900D92A03AB107D9F78F
:1002700021E0A0EAB1E001C01D92A33BB207E1F783
:1002800043D00C941B14BCCE9EB19F7B892B8EB99E
:10029000089584B7877F84BF0FB6F894A89580919E
:1002A0006000886180936000109260000FBE90E053
:1002B00080E80FB6F89480936100909361000FBEC0
:1002C0006E9A76980C94F60F80E4DECF80E4DCCF53
:1002D00042E360E882E00E94590F811102C080E48D
:1002E00001C080E0D1CF8EB3843069F4B2D182E016
:1002F0008093E9008091E80082FF05C080E4C4DFBC
:1003000071D080E0C1CF0895C4DF64D080E4BCDF49
:100310007894E9DF0E94E213FCCF00C0F90110825B
:10032000292F33272230310559F02330310579F058
:100330002130310591F582E190E02AEF30E031C0C3
:1003400082E0808380E290E02EE131E02AC09927AC
:1003500081309105C9F02CF4892BF9F4E6EFF0E037
:1003600018C08230910599F00397B9F4809100018B
:1003700090E022E330E030930F0120930E0122E061
:10038000208320E031E00DC0E8EEF0E002C0EEECAA
:10039000F0E0849190E09F0104C080E090E020E0D4
:1003A00030E0FA0131832083089578941F920F92F0
:1003B0000FB60F9211248F938AB5882321F08AB546
:1003C00081508ABD01C015BC8F910F900FBE0F9058
:1003D0001F9018958BE987BD82E084BD80936E00E5
:1003E0002BD1B9C50F931F93CF93DF931F92CDB736
:1003F000DEB70091F10084E68ABD85E085BD043159
:1004000009F4C3C0E8F50A3009F4A8C048F504307F
:1004100018F5023008F051C0013009F0C5C08091D4
:10042000E8008B778093E80082E08093E900809178
:10043000EC0081608093EC000093F1001092F100D9
:100440008AE08093F10040E050E06AE070E085E9E6
:1004500091E00E94C610CBC0063009F459C0A4C078
:10046000013109F48DC028F4003109F09DC03DD45C
:10047000C3C0023109F48CC0033109F483C094C0B5
:10048000093109F48AC060F4063109F47EC008F429
:1004900079C0073109F481C0083109F47BC084C0F8
:1004A0000D3109F47DC008F475C0003509F47AC037
:1004B000013509F079C096D79FC01091F100023044
:1004C00011F46091F1008091E8008B778093E8004F
:1004D00082E08093E9008091EC0081608093EC00E1
:1004E0000093F100812F6983B5D06981023039F41E
:1004F00081FF0CC01092F100812FBCD078C080FF2A
:1005000005C01092F100812FADD06FC080EC6DC09E
:1005100040E050E064E070E084EA91E00E945A110B
:100520008091E8008B778093E80082E08093E90077
:100530008091EC0081608093EC008091A401909107
:10054000A501A091A601B091A701B7FF03C081E06A
:100550008093A30186E08093F1000FC08091E800B2
:100560008B778093E80082E08093E9008091EC0033
:1005700081608093EC000093F1001092F10037C08D
:100580003BD43AC0802FB4D037C0802FDCD134C0E8
:1005900067D432C0802F75D22FC0802FCCD22CC010
:1005A0000CD32AC04FD728C02091F3008091F200CD
:1005B00090E0922B8034910541F48091E8008B7794
:1005C0008093E8000E948A0FEFCF8091E8008B773C
:1005D0008093E80082E08093E9008091EC008160E4
:1005E0008093EC000093F10089EC8093F1008091FE
:1005F000E8008E778093E80015BC0E948A0F82E0A5
:100600008093E9008091EC008E7F8093EC000F9046
:10061000DF91CF911F910F910895EEE3F1E090816A
:10062000891741F0339691E0EC35F907C1F780E086
:1006300090E00895CF010895CF93DF938EE9EDDF29
:10064000EC0180E090E00E9401148A83DF91CF9159
:1006500008950895E2DF009719F0FC018181089563
:1006600080E00895DADF009719F0FC018281089597
:1006700080E008951F93CF93DF931F92CDB7DEB72D
:10068000182F6983CADF6981009761F0FC016283DA
:100690001E3941F480E090E00F90DF91CF911F91DF
:1006A0000C9409140F90DF91CF911F9108959091B0
:1006B0005C01992331F08EBD0DB407FEFDCF8EB5E0
:1006C0000895B0C490915C01992329F08EBD0DB4BA
:1006D00007FEFDCF0895A6C480915C01882331F008
:1006E0001EBC0DB407FEFDCF8EB5089580E09AC400
:1006F0004F925F926F927F928F929F92AF92BF9232
:10070000CF92DF92EF92FF920F931F93CF93DF93DD
:10071000CDB7DEB7C950D1400FB6F894DEBF0FBEDB
:10072000CDBF182F40E050E069E070E0CE010196A7
:100730000E9410116A8179817A836983613081E036
:10074000780788F08091E8008B778093E80082E05A
:100750008093E9008091EC0081608093EC0010931D
:10076000F10080ECD1C040E050E0CE010A960E943A
:10077000101189819A810A968F739927892B39F4F0
:100780008091E8008B778093E8000E948A0F809127
:10079000E8008B778093E80082E08093E900809105
:1007A000EC0081608093EC00133111F4C88401C027
:1007B000C9847090A4016090A501FE013A964F0192
:1007C000A12CB12CE12CF12C88E0582E4424439428
:1007D00089819A81A816B90608F066C0F4010191D2
:1007E0004F01DB808091A301882319F06ED4109211
:1007F000A3018D8167DF8091A50164DF8091A40151
:1008000061DF802F5FDF133119F49D8195259D8372
:10081000E114F10479F40C1569F08F81A0FE04C095
:10082000133111F4886001C0877F8F83E090A401A9
:10083000F090A501D0FC13C0E114F10431F4D3FC15
:1008400004C08D2D897F8260D82E0F812C814C2D84
:10085000B7018D2D43D4811128C0E12CF12CA0FCCF
:1008600002C01531E9F48091A4019091A501A091F5
:10087000A601B091A7010196A11DB11D8093A4010D
:100880009093A501A093A601B093A701133141F461
:10089000AA27BB27892B8A2B8B2B11F44092A3010B
:1008A000FFEFAF1ABF0A94CF80E09B8197FF2AC069
:1008B0008E8108DF862D06DF872D04DF80E002DFD2
:1008C0008B8185FF06C0E114F10419F48F7C8061EF
:1008D0008B830F812C814C2DB7018B81FFD313317A
:1008E00089F44091A4015091A5016091A6017091F5
:1008F000A70166277727452B462B472B19F491E054
:100900009093A3011093F1008093F1008091E8008F
:100910008E778093E800C75FDE4F0FB6F894DEBF96
:100920000FBECDBFDF91CF911F910F91FF90EF9040
:10093000DF90CF90BF90AF909F908F907F906F90FF
:100940005F904F900895DF92EF92FF920F931F9365
:10095000CF93DF9300D01F92CDB7DEB7F82E40E0E3
:1009600050E063E070E0CE0101960E941011898191
:100970009A8199838A838091E8008B778093E8003D
:1009800082E08093E9008091EC0081608093EC002C
:10099000F092F1001092F10000E010E088E0E82E03
:1009A000DD24D39489819A810817190708F04AC079
:1009B0008091A301882319F088D31092A3018B8121
:1009C00081DE8091A5017EDE8091A4017BDE84DE44
:1009D0008093F1008091E80085FD07C08091E800D8
:1009E0008E778093E8000E948A0F84E1F81203C09A
:1009F0008B818E258B8300FD03C086E1F8121FC01A
:100A00004091A4015091A5016091A6017091A701A8
:100A10004F5F5F4F6F4F7F4F4093A4015093A501ED
:100A20006093A6017093A70186E1F81641F066274E
:100A30007727452B462B472B11F4D092A3010F5F4C
:100A40001F4FB0CF1092F1009091E8008091E80024
:100A50008E778093E80095FD09C00E948A0F8091EF
:100A6000E8008E778093E8000E948A0F0F900F9025
:100A70000F90DF91CF911F910F91FF90EF90DF903A
:100A80000895CF92DF92EF92FF920F931F93CF932F
:100A9000DF93CDB7DEB729970FB6F894DEBF0FBE50
:100AA000CDBFD82E40E050E065E070E0CE01019669
:100AB0000E9410119091E8009B779093E80082E0EB
:100AC0008093E9009091EC0091609093EC007E019E
:100AD00082E0E80EF11C8E010A5F1F4F84E0C82EF1
:100AE000C00EF70181917F01E2DDF80181938F0152
:100AF000CE12F7CFD092F1001092F1008981FE0161
:100B0000E80FF11D85818093F1001092F100809132
:100B1000E8008E778093E80029960FB6F894DEBF40
:100B20000FBECDBFDF91CF911F910F91FF90EF903E
:100B3000DF90CF900895EF92FF920F931F93CF9382
:100B4000DF9300D000D0CDB7DEB7F82E40E050E004
:100B500064E070E0CE0101960E9410119091E800CF
:100B60009B779093E80082E08093E9009091EC00FD
:100B700091609093EC008E010F5F1F4F84E0E82E90
:100B8000E00EF80181918F019DDDE012FACFF09225
:100B9000F1001092F1001092F1008091E8008E7740
:100BA0008093E8000F900F900F900F90DF91CF91FE
:100BB0001F910F91FF90EF900895FF920F931F9355
:100BC000CF93DF93CDB7DEB7C250D1400FB6F894C4
:100BD000DEBF0FBECDBF40E050E063E070E0CE016D
:100BE00001960E941011698170E040E050E0CE0152
:100BF00004960E9410118091E8008B778093E800A2
:100C000082E08093E9008091EC0081608093EC00A9
:100C10008DE18093F1001092F10010E08B811817A4
:100C200078F48981181740F4E4E0F0E0EC0FFD1F40
:100C3000E10FF11D808101C080E044DD1F5FEECF38
:100C400000E08A81081710F58981181778F4FF24CD
:100C5000F394F10EE4E0F0E0EC0FFD1FE10FF11D65
:100C6000808125DD8093F1001F2D03C035DD809349
:100C7000F1008091E80085FD07C08091E8008E7743
:100C80008093E8000E948A0F0F5FDBCF1092F10083
:100C90009091E8008091E8008E778093E80095FDC0
:100CA00009C00E948A0F8091E8008E778093E80047
:100CB0000E948A0FCE5FDE4F0FB6F894DEBF0FBEE4
:100CC000CDBFDF91CF911F910F91FF9008958823A1
:100CD00059F09AB58150992339F0EFE9FFE0319747
:100CE000F1F700C00000F3CF0895BF92CF92DF92DA
:100CF000EF92FF920F931F93CF93DF93CDB7DEB7A1
:100D00002F970FB6F894DEBF0FBECDBF40E050E086
:100D10006BE070E0CE0101960E9410118091E80016
:100D20008B778093E80082E08093E9008091EC006B
:100D300081608093EC001092A4011092A5011092A2
:100D4000A6011092A7018B81C2DF45D181E093D12A
:100D50008A81BDDF7E018CE0E80EF11C84E0B82EB4
:100D6000BE0C8C819FEF980F9C83882351F18AB52C
:100D7000882339F1CE0108966C0187018D81A7DFA8
:100D8000F60181916F0193DCF80181938F01BE120E
:100D9000F5CF8F81882351F0EBE0F0E0EC0FFD1FE1
:100DA000E80FF11D90818E81981302C080E00AC087
:100DB00080E061D18A818BDF81E05DD18A8187DF2C
:100DC000D0CF80EC90E19093F1008093F10080917E
:100DD000E8008E778093E8002F960FB6F894DEBF78
:100DE0000FBECDBFDF91CF911F910F91FF90EF907C
:100DF000DF90CF90BF9008950F931F93CF93DF9311
:100E000000D0CDB7DEB740E050E062E070E0CE0148
:100E100001960E94101108EE10E0F80180818B7796
:100E2000808382E08093E900ECEEF0E080818160D5
:100E3000808389814CDF80E01ED1A1D08A8147DF89
:100E4000E1EFF0E081E180831082F80180818E770C
:100E500080830F900F90DF91CF911F910F91089594
:100E6000EF92FF920F931F93CF93DF9300D000D0A8
:100E700000D0CDB7DEB740E050E066E070E0CE01D4
:100E800001960E9410118091E8008B778093E80012
:100E900082E08093E9008091EC0081608093EC0017
:100EA0008E010D5F1F4F7E0187E0E80EF11CF801F7
:100EB00081918F0107DC0E151F05C9F78A81811109
:100EC00004C0898104DF80E001C0E1D092E1909309
:100ED000F1008093F1008091E8008E778093E80024
:100EE00026960FB6F894DEBF0FBECDBFDF91CF912F
:100EF0001F910F91FF90EF9008951F920F920FB6E0
:100F00000F9211248F93199908C08091A10187FF36
:100F100002C02A9A19C02A9817C08091A101880F8F
:100F20008093A1018091A00181508093A001811143
:100F300004C01092810082E086BB1B9B05C080919B
:100F4000A10181608093A101199A8F910F900FBE2A
:100F50000F901F901895259A10926F00109285009F
:100F60001092840081E090E0909389008093880043
:100F700080E48093800089E08093810008958091CF
:100F80005C01882349F084B1897F84B985B1867F6B
:100F900085B91CBC1DBC089584B1897F84B985B115
:100FA000867F85B9D8CF92E090936F00109285002C
:100FB00010928400E82FF0E0EE0FFF1FE250FF4F89
:100FC000859194919093890080938800109280007D
:100FD00010928100089588E945DB8730D0F491E0D4
:100FE00090935C01E82FF0E0EA5BFD4FE491209ADA
:100FF000289A84B1866084B923982B9A8DB5E6FF30
:1010000002C0816001C08E7F8DBD2098E065ECBD7F
:10101000089510925C0194B1966094B995B199606D
:1010200095B9C1CF8093A10188E08093A001809100
:10103000A10187FF02C02A9A01C02A981092850058
:10104000109284008AE0809381008091A00188231F
:1010500019F08AB58111F9CF109281008091A10118
:10106000089590915C01992329F08EBD0DB407FE7F
:10107000FDCF0895D7CF882339F0249A8EE9F2DA8C
:10108000811103C02C9A089524982C98089580EF1C
:10109000E8DF80E0E6DF80E0E4DF80915C01882328
:1010A00031F01EBC0DB407FEFDCF8EB502C080E04E
:1010B000B9DF80FF03C08AB58111E9CF8AB58111FC
:1010C00002C081E8089580E008958DE4CADF80E0E1
:1010D000C8DF8091A601C5DF80E0C3CF0F931F93C7
:1010E000CF93DF93D62F172FC42F8E77E82FF0E002
:1010F000E830F10579F134F4E230F10559F0349734
:10110000A9F02AC0E032F10589F0E034F10511F1CF
:10111000709711F5822FDBDD1FC00DB407FEFDCFE8
:101120008EB58C1312C09AB5992379F0802F99DF70
:10113000812F97DF8D2F95DF80915C01882311F03F
:101140001EBCEBCF80E06EDFECCF8AB5811104C00E
:1011500080E803C09CDF01C080E094E69ABDDF9187
:10116000CF911F910F9108959B01692F782F832FA5
:10117000922F0895CF93DF93CDB7DEB7C750D140FC
:101180000FB6F894DEBF0FBECDBF40E050E067E081
:1011900070E0CE018F5F9E4F0E941011CE5FDE4F38
:1011A000688179818A819B81C250D140DDDFCE5F29
:1011B000DE4F688379838A839B83C250D140CA5FA4
:1011C000DE4F8881C650D140C95FDE4F9881C7503D
:1011D000D140CA5FDE4F9883C650D140C95FDE4F11
:1011E0008883C750D1408091E8008B778093E800D6
:1011F00082E08093E9008091EC0081608093EC00B4
:101200008091A201CA5FDE4F28813981C650D1404A
:10121000811112C0CE5FDE4F688179818A819B8106
:10122000C250D140AE014F5F5F4FD8D3882311F039
:1012300080E00EC083E00CC0A901BE016F5F7F4F4C
:10124000CE5FDE4F88819981C250D140ACD5EECFC0
:1012500090E59093F10095E09093F1008093F10078
:1012600081110BC0CA5FDE4F68817981C650D140C1
:1012700040E050E0CE01019689D78091E8008E775A
:101280008093E800C95FDE4F0FB6F894DEBF0FBE53
:10129000CDBFDF91CF910895AF92BF92CF92DF92F1
:1012A000EF92FF920F931F93CF93DF93CDB7DEB7EB
:1012B000C850D1400FB6F894DEBF0FBECDBF40E09E
:1012C00050E068E070E0CE010196AAD76B817C8186
:1012D0008D819E8149DF6B837C838D839E837F819B
:1012E00068856F83788740E050E0CE01099698D7F3
:1012F0008F81988509968F739927892B31F4809176
:10130000E8008B778093E80005D68091E8008B7722
:101310008093E80082E08093E9008091EC00816096
:101320008093EC008091A20181112DC02981215070
:101330004B815C816D817E812630A0F430E0F90123
:10134000E958FE4F8081F901EF58FE4F9081F90175
:10135000E559FE4FE081D901AB59BE4F2C912223B4
:10136000D9F003C0E6E293E28EE2AF80B8849E013A
:10137000275F3F4F69017A018B012A81482F6E2F29
:10138000892F9AD30BC04F815885BE01675F7F4F6D
:101390008B819C8135D502C029855FD3882311F0CC
:1013A00080E001C083E090E59093F10094E0909399
:1013B000F1008093F1008091E8008E778093E8003F
:1013C000C85FDE4F0FB6F894DEBF0FBECDBFDF9112
:1013D000CF911F910F91FF90EF90DF90CF90BF9032
:1013E000AF900895CF93DF931F92CDB7DEB740E063
:1013F00050E061E070E0CE01019612D78091E800E4
:101400008B778093E80082E08093E9008091EC0084
:1014100081608093EC0089818093A20181E58093B3
:10142000F1008981813011F480EC01C080E080936B
:10143000F1008091E8008E778093E8000F90DF91B3
:10144000CF910895CF93DF9300D000D000D0CDB7D7
:10145000DEB7E091F1008E2F90E0FC013197E7308C
:10146000F10508F026C1EA5AFF4F0C94FB13809156
:10147000E8008B778093E80082E08093E900809118
:10148000EC0081608093EC008091A201811102C088
:1014900020D205C0823011F440D401C080E090E534
:1014A0009093F10091E09093F10098279093F100D0
:1014B000FBC08091E8008B778093E80082E0809306
:1014C000E9008091EC0081608093EC008091A201A2
:1014D000811102C03DD201C05BD480E58093F10050
:1014E00082E08093F1001092F100DEC040E050E015
:1014F00065E070E0CE01019693D66A817B818C8194
:101500009D8132DE6A837B838C839D838091E8009A
:101510008B778093E80082E08093E9008091EC0073
:1015200081608093EC008091A201E981811114C057
:10153000E150E83028F4F0E0E358FE4F808101C02C
:1015400080E04A815B816C817D8128D3882311F002
:1015500080E00BC083E009C0E13011F084E101C0FC
:1015600080E16A817B8188D4F1CF90E59093F1008E
:1015700093E096C091DE9DC0FDDD9BC040E050E051
:1015800061E070E0CE0106964BD68091E8008B7743
:101590008093E80082E08093E9008091EC00816014
:1015A0008093EC008091A201811112C08E81813064
:1015B00031F0823011F489E303C088E701C088E389
:1015C000BE016F5F7F4FCFD1811104C083E003C0A4
:1015D00081E001C080E090E59093F10096E0909367
:1015E000F1008093F10081115FC089819A81AB8104
:1015F000BC81CD01AA27BB278093F10089819A8104
:10160000AB81BC818093F100892F99274BC08091D9
:10161000F100833041F168F48130A1F0823071F53E
:101620008091F1009091F10090935F0180936001AF
:1016300023C08430E9F0853009F58091F100809174
:10164000F1001AC08091F1009091F1002091F10019
:101650003091F10030936101209362019093630116
:101660008093640109C08091F10080935E0104C001
:101670008091F10080935D0180E001C081E0909154
:10168000E8009B779093E80092E09093E9009091B6
:10169000EC0091609093EC0090E59093F10097E05E
:1016A0009093F1008093F1008091E8008E77809311
:1016B000E80026960FB6F894DEBF0FBECDBFDF91CF
:1016C000CF9108954D99FECF4D9BFECF4D99FECF02
:1016D0005B9A539A8091C9008F7E8093C900809154
:1016E000C90088608093C90081E08093A8010895B3
:1016F0008091C80086FFFCCF8091C80080648093F1
:10170000C8008091C900877F8093C9008091C9007B
:1017100080618093C90053985B981092A801089546
:101720008091A8018111E4DF80EC8093C8001092C1
:10173000C9001092CA008AB1877D8AB98BB1837DB6
:101740008BB908958091A8018111D2DF8091C800E2
:10175000806C8093C8001092C9001092CA008AB1B0
:10176000877D8AB98BB1837D8BB924982C98089595
:10177000CF93DF931F92CDB7DEB79091A80191115F
:1017800003C089839FDF89819091C80095FFFCCFBA
:101790009091C80090649093C8008093CE000F9001
:1017A000DF91CF9108958091A8018111A1DF8091EF
:1017B000C80087FD03C08AB58111F9CF8091CE00A2
:1017C00008958091A801811101C07CDF8CE04D99C2
:1017D000FECF4D9BFECF4D99FECF8150C1F70895AE
:1017E0001092A8018AB188628AB952985B9A85E002
:1017F0008A95F1F700008FE190E09093CD008093FF
:10180000CC0088E08093C9008FE68093CA00D9DFBE
:10181000D8CF1092A801249A2C9885E08A95F1F7E8
:1018200000008AB188628AB952988FE190E0909363
:10183000CD008093CC0088E08093C9008FE6809330
:10184000CA00BFDFBECF1F93CF93DF9300D0CDB7C9
:10185000DEB7182F862F79839A838ADF7981872FC5
:1018600087DF812F85DF9A81892F0F900F90DF917D
:10187000CF911F917DCF0F931F93409161015091A4
:10188000620160916301709164018A019B01082BE0
:10189000C901B8011F910F91D6CF80E869DF83DFBE
:1018A0009AB5992321F081FFF8CF81E0089580E077
:1018B00008958BE65DDF8FE0DEDF80E259DF73DFC6
:1018C0009AB5992321F087FDF8CF81E0089580E053
:1018D0000895DF92EF92FF920F931F93CF93DF93C0
:1018E000CDB7DEB728970FB6F894DEBF0FBECDBFD9
:1018F00077DF81EC3DDF89E53BDF82EC39DF82E099
:1019000037DF80EE35DF8E01075F1F4FCE01019676
:101910007C0188E0D82EE5E8F1E0D7018D2D01901B
:101920000D928A95E1F7F80182918F0121DF0E1562
:101930001F0589F728960FB6F894DEBF0FBECDBFFE
:10194000DF91CF911F910F91FF90EF90DF90A5CF86
:10195000A4DF81EC0DDF80E00BDF81E809DF23DF0E
:101960008111F7CFDDCE0F931F93CF93DF93182F05
:10197000EB01188219821A821B829BDF882341F1B6
:101980008CE4F6DE8AE077DF812FF2DE8CE4F0DE95
:101990008BE071DF81E0ECDE80DF8823C9F089DF36
:1019A0008823B1F08BE6E4DE84E065DF80EAE0DEE8
:1019B00082E0DEDE84E2DCDE8E010D5F1F4FF3DEAF
:1019C0008993C017D107D9F79AB581E0911101C069
:1019D00080E0DF91CF911F910F9108958F929F9298
:1019E000AF92BF92EF92FF920F931F93CF93DF932B
:1019F0004B015C017A0189015CDF882319F18CE4D9
:101A0000B7DE8AE038DF83E4B3DE8BE6B1DEC50102
:101A1000B40119DF80EAACDE8FEF800FA9DE84E22B
:101A2000A7DEE7010E0D1F1DC017D10731F08AB5E3
:101A3000882319F0B8DE8993F7CF9AB581E0911128
:101A400001C080E0DF91CF911F910F91FF90EF9047
:101A5000BF90AF909F908F900895FF920F931F9328
:101A6000CF93DF9300D000D0CDB7DEB7182FF22E82
:101A700049835A836B837C831CDF082F882389F07A
:101A80008CE476DE8AE0F7DE812F72DE8CE470DE95
:101A900049815A816B817C81CB01BA01D4DE8F2DC3
:101AA00067DE802F0F900F900F900F90DF91CF91F6
:101AB0001F910F91FF9008954F925F926F927F92C6
:101AC0008F929F92AF92BF92CF92DF92EF92FF924E
:101AD0000F931F93CF93DF93C82FD62F842E922E70
:101AE0002701380120FF11C0E4DE811102C0C0E0EF
:101AF00043C08CE43DDE8AE0BEDE8D2F39DE8CE40F
:101B000037DE8BE0B8DE81E033DEA114B10421F4CE
:101B100091FC20C0C1E030C0CCDE882341F38CE4CE
:101B200027DE8AE0A8DE8C2F23DE8BE621DEC301D0
:101B3000B20189DE80EA1CDE8FEF8A0D19DE84E6B1
:101B400017DEE601AC0CBD1CCA15DB0509F3899153
:101B50000FDEFACFAEDEC82F882309F4C8CF8CE49D
:101B600007DE8AE088DE882D03DE8CE401DEC30117
:101B7000B20169DE80E0FCDD8C2FDF91CF911F91F7
:101B80000F91FF90EF90DF90CF90BF90AF909F901C
:101B90008F907F906F905F904F9008951F93CF9399
:101BA000DF9300D000D0CDB7DEB7182F49835A831A
:101BB0006B837C837EDE49815A816B817C818823A3
:101BC00009F467C08CE4103429F4D2DD8AE053DED6
:101BD00080E440C049835A836B837C83103309F0CF
:101BE00040C0C6DD8AE047DE86E3C2DD8CE4C0DDAE
:101BF0008BE041DE81E0BCDD5CDE882309F449C076
:101C00008CE4B6DD8AE037DE83E3B2DD8BE6B0DD5F
:101C100049815A816B817C81CB01BA0114DE80EA53
:101C2000A7DD80915F018150A3DD84E6A1DD10E096
:101C3000812F90E020915F0130916001821793071E
:101C400020F480E095DD1F5FF3CF8CE491DD8AE026
:101C500012DE80E38DDD8CE48BDD8BE00CDE81E039
:101C60000FC086DD8AE007DE812F82DD8CE480DD17
:101C700049815A816B817C81CB01BA01E4DD80E02E
:101C800077DD0F900F900F900F90DF91CF911F9104
:101C900004CE80E00F900F900F900F90DF91CF91C6
:101CA0001F910895982F9F7090698073880F892BDA
:101CB0005FCD1F93CF93DF931F92CDB7DEB7182F61
:101CC00088E6998355DD812F53DD89E651DD9981C1
:101CD000892F0F90DF91CF911F914ACD80E848DD89
:101CE00062DD9AB5992321F081FFF8CF81E0089554
:101CF00080E0089590915D01892F8F7080619073CD
:101D0000990F892B35DD4FDD9AB5992321F087FD99
:101D1000F1CF81E0089580E00895DF92EF92FF9285
:101D20000F931F93CF93DF93CDB7DEB728970FB6EE
:101D3000F894DEBF0FBECDBF6CDD82EC19DD82E012
:101D400017DD80EE15DD8E01075F1F4FCE01019676
:101D50007C0188E0D82EEDE8F1E0D7018D2D0190CF
:101D60000D928A95E1F7F80182918F0101DD0E1540
:101D70001F0589F728960FB6F894DEBF0FBECDBFBA
:101D8000DF91CF911F910F91FF90EF90DF90A6CF41
:101D9000A5DF80ECEDDC80E0EBDC81E8E9DC03DD55
:101DA0008111F7CFCFCCEF92FF920F931F93CF9378
:101DB000DF93EC017B018A019DDF8823D1F08091C4
:101DC0005E0170DF80E0D4DCCE0173DFE7010E0D31
:101DD0001F1DC017D10741F08AB5882329F084E27E
:101DE000C7DCE1DC8993F5CF9AB581E0911101C0A0
:101DF00080E0DF91CF911F910F91FF90EF900895B8
:101E0000CF92DF92FF920F931F93CF93DF936C01DA
:101E10008B01EA016FDFF82E811102C0F12C23C083
:101E2000C0FF06C0F801EC0FFD1F8FEF80832196E5
:101E300080915E0137DF8DE19BDCC6013ADF2097A0
:101E400091F058DF882351F384E692DCF801808119
:101E50008FDC84E68DDC0E5F1F4FF80131978081A7
:101E600087DC2297ECCF8F2DDF91CF911F910F91BF
:101E7000FF90DF90CF9008951F93CF93DF93182F9B
:101E8000EB0138DF882381F080915E010BDF812F29
:101E90006FDCCE0181600DDF80E66ADC80E068DC0B
:101EA000DF91CF911F9126CF80E0DF91CF911F91DD
:101EB00008958F708093E900EBEEF0E080818160FF
:101EC0008083EDEEF0E010826093EC00408380911F
:101ED000EE00881F8827881F08958091AB0187FF37
:101EE0000FC08091E80082FD04C08EB38111F9CF4C
:101EF00010C08091E8008B770AC08EB3882349F028
:101F00008091E80080FFF9CF8091E8008E77809380
:101F1000E80008952091E4003091E50095E64091B5
:101F2000EC00842F817040FF21C08091E80080FD8B
:101F30001BC08EB3882391F0853091F08091EB0027
:101F400085FD10C04091E4005091E5004217530711
:101F500031F39A01915019F784E0089582E00895D1
:101F600083E0089581E0089580E008954091E800BD
:101F700042FFDFCF08950F931F93CF93DF9346D097
:101F80004DD0C8EDD0E088818F77888388818068C4
:101F9000888388818F7D888319BC1EBA1092A9011D
:101FA00000EE10E0F80180818B7F80838881816062
:101FB000888342E160E080E07CDFE1EEF0E0808158
:101FC0008E7F8083E2EEF0E080818160808380817B
:101FD00088608083F80180818E7F80838881806122
:101FE0008883DF91CF911F910F910895E8EDF0E084
:101FF00080818F7E8083E7EDF0E080818160808347
:1020000084E082BF81E08093AA01B5CFE8EDF0E0E3
:1020100080818E7F80831092E20008951092DA0012
:102020001092E10008951F920F920FB60F921124A3
:102030002F933F934F935F936F937F938F939F93D0
:10204000AF93BF93EF93FF938091DA0080FF1DC0A1
:102050008091D80080FF19C08091DA008E7F809334
:10206000DA008091D90080FF0CC080E189BD82E157
:1020700089BD09B400FEFDCF81E08EBB0E946401E2
:1020800004C019BC1EBA0E9466018091E10080FF65
:1020900017C08091E20080FF13C08091E2008E7F24
:1020A0008093E2008091E20080618093E200809161
:1020B000D80080628093D80019BC85E08EBB81D3A4
:1020C0008091E10084FF2CC08091E20084FF28C051
:1020D00080E189BD82E189BD09B400FEFDCF809118
:1020E000D8008F7D8093D8008091E1008F7E80930F
:1020F000E1008091E2008F7E8093E2008091E20017
:1021000081608093E2008091A901811106C08091D5
:10211000E30087FD02C081E001C084E08EBB51D3A3
:102120008091E10083FF21C08091E20083FF1DC008
:102130008091E100877F8093E10082E08EBB109266
:10214000A9018091E1008E7F8093E1008091E200FF
:102150008E7F8093E2008091E20080618093E200B4
:1021600042E160E080E0A5DE2CD3FF91EF91BF91CA
:10217000AF919F918F917F916F915F914F913F911F
:102180002F910F900FBE0F901F901895CF92DF9256
:10219000EF92FF920F931F93CF93DF93EC018B018C
:1021A0007A01B8DE811133C0E114F10439F0F7018E
:1021B00080819181081B190BC80FD91FC12CD12C0C
:1021C0000115110519F18091E80085FD16C0809177
:1021D000E8008E778093E800F5D2E114F10449F02D
:1021E000F70180819181C80ED91ED182C08285E01D
:1021F0000EC090DE882321F30AC089918093F100FC
:1022000001501109FFEFCF1ADF0ADACF80E0DF912A
:10221000CF911F910F91FF90EF90DF90CF90089595
:10222000CF92DF92EF92FF920F931F93CF93DF93A2
:10223000EC018B017A016EDE811133C0E114F104EF
:1022400039F0F70180819181081B190BC80FD91F44
:10225000C12CD12C0115110519F18091E80085FDE3
:1022600016C08091E8008B778093E800ABD2E11430
:10227000F10449F0F70180819181C80ED91ED18205
:10228000C08285E00EC046DE882321F30AC080911B
:10229000F100899301501109FFEFCF1ADF0ADACF5D
:1022A00080E0DF91CF911F910F91FF90EF90DF9031
:1022B000CF900895CF92DF92EF92FF920F931F93EA
:1022C000CF93DF93EC018B017A0124DE811139C0B9
:1022D000980121503109C20FD31FE114F10439F0E4
:1022E000F70180819181081B190BC81BD90BC12CE8
:1022F000D12C0115110521F18091E80085FD16C052
:102300008091E8008B778093E8005CD2E114F104BF
:1023100049F0F70180819181C80ED91ED182C08217
:1023200085E00FC0F7DD882321F30BC08091F10019
:102330008883219701501109FFEFCF1ADF0AD9CF07
:1023400080E0DF91CF911F910F91FF90EF90DF9090
:10235000CF9008952091B1013091B201261737072F
:1023600048F06115710539F42091E8002E7720932B
:10237000E80001C0B90140E061157105A1F12EB37B
:10238000222309F440C0253009F43FC02091E80021
:1023900023FD37C02091E80022FD2DC02091E800E8
:1023A00020FFEACF4091F3002091F20030E0342B7F
:1023B000FC01CF016115710559F02031310540F460
:1023C00081918093F100615071092F5F3F4FF1CFF0
:1023D00041E02031310509F040E02091E8002E77FE
:1023E0002093E800C9CF4111CACF05C08EB388231E
:1023F00051F0853051F08091E80082FFF7CF80E006
:10240000089581E0089582E0089583E00895209181
:10241000B1013091B2012617370748F061157105F7
:1024200039F42091E8002E772093E80001C0B9012B
:10243000FC0120E06115710589F18EB3882309F450
:102440003DC0853009F43CC08091E80083FD34C074
:102450008091E80082FD2AC08091E80080FFEACFE9
:102460002091F3008091F20090E0922B61157105AC
:1024700059F08031910540F424912093F100319678
:10248000615071090196F2CF21E0409709F020E0F8
:102490008091E8008E778093E800CCCF2111CDCFDA
:1024A00005C08EB3882351F0853051F08091E8004B
:1024B00082FFF7CF80E0089581E0089582E00895DB
:1024C00083E00895CF92DF92EF92FF920F931F93D4
:1024D000CF93DF93EB012091B1013091B201261728
:1024E000370740F0209739F42091E8002E772093A9
:1024F000E80001C0E9017C0180E02097D1F19EB3A2
:10250000992309F446C0953009F445C09091E8003C
:1025100093FD3DC09091E80092FD33C09091E8009A
:1025200090FFEBCF8091F3000091F20010E0182BA8
:102530006801C601801B910B8E0D9F1D209761F0D5
:1025400020E1C216D10440F45CD18093F1002197C0
:102550002FEFC21AD20AEDCF7C0181E090E1C916BB
:10256000D10409F080E09091E8009E779093E80014
:10257000C4CF8111C4CF05C08EB3882351F08530FC
:1025800051F08091E80082FFF7CF80E005C081E044
:1025900003C082E001C083E0DF91CF911F910F91D2
:1025A000FF90EF90DF90CF9008950F931F93CF93FC
:1025B000DF9300D01F92CDB7DEB7EBEAF1E088E001
:1025C0008E0F9091F10091938E13FBCFFAD08091F2
:1025D000E80083FFE0C08091AB019091AC01492FEE
:1025E00050E04A30510508F0D6C0FA01E35AFF4FD7
:1025F00002C1803881F0823809F0CDC08091AF01EE
:102600008F708093E9008091EB0085FB882780F92B
:102610001092E90001C080E09091E800977F9093CC
:10262000E8008093F1001092F10092C0282F2D7FD6
:1026300009F0B1C0823009F0AEC08091AD018111C6
:1026400027C08091AF018F7009F4A5C08093E90085
:102650002091EB0020FF1CC0933021F48091EB000F
:10266000806214C09091EB0090619093EB0021E0A8
:1026700030E0A90102C0440F551F8A95E2F740934C
:10268000EA001092EA008091EB0088608093EB00F2
:102690001092E9008091E800877F5DC081117BC0C6
:1026A0001091AD011F770FB7F8948091E800877FF4
:1026B0008093E80012DC8091E80080FFFCCF8091DD
:1026C000E3008078812B8093E30080688093E300AF
:1026D000111102C082E001C083E08EBB0FBF5BC05E
:1026E0008058823008F057C09E012D5F3F4FAE01E9
:1026F0004F5F5F4F6091AF018091AD019091AE014E
:102700000E948D01BC01892B09F445C08091E8002D
:10271000877F8093E8002B8189819A81211102C0F3
:1027200076DE05C0213011F4CDDE01C013DE8091CC
:10273000E8008B778093E8002EC0803861F58091A7
:10274000E800877F8093E8008091A9018093F100E1
:102750008091E8008E778093E800BFDB1CC0811178
:102760001AC09091AD019230B0F48091E800877F5B
:102770008093E8009093A901B0DB8091A9018111B9
:1027800006C08091E30087FD02C081E001C084E0C3
:102790008EBB0E9468018091E80083FF0AC080918F
:1027A000EB0080628093EB008091E800877F80934C
:1027B000E8000F900F900F90DF91CF911F910F9134
:1027C00008950895CF938EB3882399F0C091E900BE
:1027D000CF709091EC00892F817090FD80E8C82B1C
:1027E0001092E9008091E80083FDDFDECF70C09396
:1027F000E900CF910895EE0FFF1F0590F491E02DB1
:102800000994F999FECF92BD81BDF89A992780B5B8
:102810000895262FF999FECF92BD81BDF89A0197B0
:1028200000B4021639F01FBA20BD0FB6F894FA9A18
:0A283000F99A0FBE0895F894FFCF47
:10283A001C0330003000300032003000300030001D
:10284A003100320033003400350000000000090274
:10285A002000010100C0320904000002FF0000004C
:10286A000705820240000A0705020240000A8001A9
:10287A000081010090010091010192012994012136
:10288A009803069E0301A10100A40300013233202C
:10289A0000C001000101010100000126263626269A
:1028AA0026232333232323242C354C081A4020685B
:1028BA0030222A32181289AB45CDD888FF1289AB4B
:1028CA0045CDD888FF4156524953505F4D4B32008F
:00000001FF
