:1000000012C01FC072C0DDC009C1E1C01AC019C052
:1000100018C017C016C015C014C013C012C011C03C
:1000200010C00FC00EC011241FBECFEDCDBF20E009
:10003000A0E6B0E001C01D92A437B207E1F7CBD132
:1000400074C3DECF80E888BD82E088BD0DD13FD18A
:10005000F1D0BC9A78940895312C412C80916B009A
:100060008068582E60906A00BE9AC6988091690098
:100070008068782E80906800D29ADA9A84E38CBDEA
:1000800088E68BBD8FEF88BF15BC84E58EBD84E20A
:1000900089BF8FB584608FBD0895412C312C15BC6C
:1000A0001EBC80ED8DBD8FEF8BBD88BF80E489BF06
:1000B00080E28BBF0895BE98C69880E482BD13BCD1
:1000C00010926000EACF832D08951FBC19BE1BBE9D
:1000D00012BC13BC852D90E0982F8827860D911DAA
:1000E00090936B0080936A0008958F938FB78F93DE
:1000F0002F939F938EB515BC1EBC9091600090FD10
:1001000006C0B69B02C0016005C000E003C0CA99EA
:10011000FCCFF9CF41100AC000FF4DC08FB58460FD
:100120008FBD8BE680936100439445C09DED980F91
:100130009232F8F4809161008C3621F48BE6809342
:10014000610039C0862D880F682E9CE6909361006F
:1001500000FD02C08160682E81E0840D482E893048
:1001600011F4562C28C0813131F5AFDF332433949C
:1001700022C086548434E0F4809161008C36A1F46E
:10018000862D880F682E00FD02C08160682E81E0F8
:10019000840D482E893011F4562C0DC0813159F44C
:1001A00094DF3324339407C090DF92E0392E03C0EC
:1001B0008CDF83E0382E9F912F918F918FBF8F918D
:1001C00018958F9382DF84E0382E8F9118951F92B7
:1001D0000F920FB60F9211248F93842D803161F40A
:1001E000C698DA9A1FBC19BE332433948F910F90AE
:1001F0000FBE0F901F901895883011F4562C782C54
:1002000057FE08C0C69A550C77FE06C0DA98770CE0
:100210004394ECCFC698F7CFDA9AF9CFB69ACA9A38
:100220001895D298DA9884E083BD12BC81E080935F
:10023000600033CF8AB380668ABB0895DD9ADE986A
:100240000895DE9ADD980895DE9ADD9A0895DE9885
:10025000DD9808958BB390E489278BBB08958BB309
:1002600090E289278BBB089583B7846083BF08958C
:1002700082B7982F977092BF869586958695209124
:10028000720030917300820F932F911D9093730031
:10029000809372000895E82FF0E0EE0FFF1FE459FD
:1002A000FF4F809172009091730091838083089535
:1002B000E82FF0E0EE0FFF1FE459FF4F809172002E
:1002C0009091730020813181821B930B089584E803
:1002D00086B9089580916700882329F0813091F0D4
:1002E00090E080E008958FED87B988E083B981E0E0
:1002F000809367001092640010926600109265006F
:10030000369AEECF349BECCF349A209164002111C1
:1003100003C080936400F4CF8091650090916600E3
:10032000213260F444B155B1840F951F909366005B
:10033000809365002F5F20936400E2CF10926700E6
:1003400008951092630010926200909167009130BE
:10035000B9F038F09230A1F1809162009091630081
:10036000089586E887B980E183B981E080936700CA
:10037000109264001092660010926500369AECCFDD
:10038000349BEACF349A80916400811103C090932A
:100390006400F4CF813280F444B155B120916500FE
:1003A00030916600240F351F30936600209365005E
:1003B0008F5F80936400E2CF82E080936700CCCFB0
:1003C0008091650090916600909363008093620035
:1003D00010926700C1CFCF93DF93CDB7DD27C65012
:1003E000CDBF30DE83E090E08ED19A83898381E0B7
:1003F00090E089D17C0185E090E085D129813A8126
:100400002F3F3F4F31F0EF20E09419F08F3F9807D6
:1004100091F44FE986E891E0415080409040E1F747
:1004200000C0000014DF8FE493EC0197F1F700C0E7
:10043000000004DFEECF44E2A42EA81A89819A813D
:100440009C0150E040E060E070E080ED97E039D141
:1004500029833A834B835C831D82F12CE12CD12CC0
:10046000C12C10E01E820A2C000CBB0801DF9D810C
:10047000911104C020DE21E02D8308C03D81313080
:1004800009F0A2C020DE811124C0E1DE8E81882324
:1004900009F4ECC080E00CDF8035934C08F0E8C034
:1004A000D3DEC49A1111E6C04CDF0097F9F2BC010B
:1004B00090E080E029813A814B815C81E9D03FE086
:1004C00096958795779567953A95D1F77B0111E0D9
:1004D000CDCF813009F04AC080916A0090916B00C5
:1004E0009093690080936800833346EC940741F44D
:1004F000A8DEF0926B00E0926A0082E08D830BC070
:100500008A3A24ED920751F49CDED0926B00C0929F
:100510006A0032E03D8381E0BEDEB8CF853549EB2D
:10052000940729F48EDE82E08D831E82F4CF882723
:100530008115964AC1F485DE80916A0090916B0026
:10054000813059F4109269001092680080E0A3DEB7
:1005500031E03E8342E04D83DECF01979093690006
:1005600080936800CACF6ADE1D82D5CF823049F4FD
:1005700065DE8FE493EC0197F1F700C000001D8267
:1005800085CF833079F45ADE8FE493EC0197F1F74D
:1005900000C000005CDE8FE493EC0197F1F700C02F
:1005A0000000E6CF843009F071CF48DE8FE493EC91
:1005B0000197F1F700C000004ADE8FE493EC019749
:1005C000F1F700C00000DFCF9D81923039F481E067
:1005D0006FDE23E0079708F04FCF58CF3D813330CF
:1005E00021F43ADD44E04D8351CF8D81843039F4DC
:1005F0006ADD813009F04ACF95E09D8347CF2D8198
:10060000253031F481E047DE0CDE36E03D833ECF1D
:100610004D814630D9F457DD811107C018DE81E0E5
:1006200047DE0F9708F432CFAACF813021F409DEDC
:1006300087E08D83F4CF823091F700DE8FE493EC76
:100640000197F1F700C000001D82E9CF9D8197302E
:1006500019F402DD28E010CF3D81383009F016CFC3
:1006600032DD813009F012CF45E0BDCFC4981ACFFA
:100670001E8218CF2FDE009709F4F8CE25E096955C
:1006800087952A95E1F76C01CA0CDB1C10E0EECED1
:10069000EE27FF27AA27BB2708C0A20FB31FE41F1E
:1006A000F51F220F331F441F551F96958795779589
:1006B000679598F37040A9F7009799F7BD01CF01AE
:1006C0000895A1E21A2EAA1BBB1BFD010DC0AA1F93
:1006D000BB1FEE1FFF1FA217B307E407F50720F0AB
:1006E000A21BB30BE40BF50B661F771F881F991F26
:1006F0001A9469F760957095809590959B01AC016F
:10070000BD01CF010895A8E142E002C0A82F862FC5
:10071000E82FE199FECF1FBA05C0EEBBE09AE39542
:0E0720000DB20D924150C8F70895F894FFCF26
:00000001FF
